:020000040800F2
:1000000000900020855B0008D55B0008D55B0008E8
:1000100000000000000000000000000000000000E0
:10002000000000000000000000000000D55B000898
:100030000000000000000000D55B0008B73A00088F
:10004000D55B000800000000D55B0008D55B000808
:10005000D55B0008A93B0008B93B0008C93B000874
:1000600000000000D55B0008D55B0008D55B0008E8
:10007000D55B0008C9340008E13400080000000026
:10008000E934000801350008193500083135000849
:10009000493500086135000879350008D55B00084E
:1000A000D55B0008D55B0008D55B000861470008F8
:0800B00079470008954700089C
:1000B80002B4714649084900095C49008E4402BCF3
:1000C8007047C046002243088B4274D303098B4211
:1000D8005FD3030A8B4244D3030B8B4228D3030C10
:1000E8008B420DD3FF22090212BA030C8B4202D3B2
:1000F8001212090265D0030B8B4219D300E0090ADA
:10010800C30B8B4201D3CB03C01A5241830B8B42E2
:1001180001D38B03C01A5241430B8B4201D34B03CB
:10012800C01A5241030B8B4201D30B03C01A524130
:10013800C30A8B4201D3CB02C01A5241830A8B42B5
:1001480001D38B02C01A5241430A8B4201D34B029E
:10015800C01A5241030A8B4201D30B02C01A524102
:10016800CDD2C3098B4201D3CB01C01A52418309B6
:100178008B4201D38B01C01A524143098B4201D3F0
:100188004B01C01A524103098B4201D30B01C01A1B
:100198005241C3088B4201D3CB00C01A5241830895
:1001A8008B4201D38B00C01A524143088B4201D3C2
:1001B8004B00C01A5241411A00D201465241104622
:1001C8007047FFE701B5002000F0F0F802BDC04617
:1001D8000029F7D076E7704703460B437FD4002207
:1001E80043088B4274D303098B425FD3030A8B42C3
:1001F80044D3030B8B4228D3030C8B420DD3FF222D
:10020800090212BA030C8B4202D31212090265D0FA
:10021800030B8B4219D300E0090AC30B8B4201D3AD
:10022800CB03C01A5241830B8B4201D38B03C01AF4
:100238005241430B8B4201D34B03C01A5241030B6B
:100248008B4201D30B03C01A5241C30A8B4201D31C
:10025800CB02C01A5241830A8B4201D38B02C01AC7
:100268005241430A8B4201D34B02C01A5241030A3E
:100278008B4201D30B02C01A5241CDD2C3098B4223
:1002880001D3CB01C01A524183098B4201D38B01A0
:10029800C01A524143098B4201D34B01C01A524143
:1002A80003098B4201D30B01C01A5241C3088B4288
:1002B80001D3CB00C01A524183088B4201D38B0073
:1002C800C01A524143088B4201D34B00C01A524115
:1002D800411A00D201465241104670475DE0CA0FEC
:1002E80000D04942031000D34042534000229C46AC
:1002F80003098B422DD3030A8B4212D3FC228901B6
:1003080012BA030A8B420CD3890192118B4208D38B
:10031800890192118B4204D389013AD0921100E0ED
:100328008909C3098B4201D3CB01C01A5241830901
:100338008B4201D38B01C01A524143098B4201D32E
:100348004B01C01A524103098B4201D30B01C01A59
:100358005241C3088B4201D3CB00C01A52418308D3
:100368008B4201D38B00C01A5241D9D243088B4229
:1003780001D34B00C01A5241411A00D201466346CC
:1003880052415B10104601D34042002B00D5494230
:10039800704763465B1000D3404201B5002000F06F
:1003A80005F802BD0029F8D016E770477047C04627
:1003B80003B47146490840004900095E49008E446B
:1003C80003BC704710B5064C2378002B07D1054BAA
:1003D800002B02D0044800E000BF0123237010BDA9
:1003E8007C0100200000000080690008044B10B563
:1003F800002B03D00349044800E000BF10BDC046ED
:1004080000000000800100208069000810B592B04B
:100418003422002105A805F0C1FE1022002101A800
:1004280005F0BCFE8020800000F09EFE80235B006B
:100438000893002309930E9308330F9380239B029C
:1004480010938023022440229B0505A805940A9254
:100458000C940D94119300F0B3FE002800D0FEE731
:10046800072303900490210001A80193029401F04E
:1004780007F9002800D0FEE712B010BD7047000051
:1004880070B5104B05001978002901D1012070BD05
:10049800FA208000FFF716FE0B4C01002068FFF7DA
:1004A80011FE00F03FFD041EF0D1032DEED802002E
:1004B80001202900404200F0EFFC044B20001D60A1
:1004C800E5E7C046000000204400002004000020AA
:1004D8008023084A5B00116810B50B4300201360A5
:1004E800FFF7CEFF041E03D1FFF7C8FF200010BDA1
:1004F8000124FBE700200240034A044B11681B78E3
:100508005B1813607047C046980100200000002067
:10051800014B18687047C04698010020034A0449F7
:1005280013680B40034313607047C0460000014046
:10053800FFF9FFFF80684007C00F70470023F0B540
:1005480085B004000393984200D1F0E0856D9D4288
:1005580005D103F03BF923005433E5651D70802372
:1005680025685B05AA681A4200D1A7E00022AB689B
:100578000192DB0008D410230126A26D01961343D3
:10058800A365E36D3343E3652800FFF7D3FF10222B
:10059800A36D1340034300D0CCE0A26D674B2069E4
:1005A8001A400633FF331343A365AB68DB0761D4F6
:1005B800276BE1687B1E9F41A368A27E0B43217EC7
:1005C8003F0389030B43617EC9030B4351030B436C
:1005D8009C46002800DB86E0410049082300664667
:1005E8002C331B785B0033433B430B43611CC97FAF
:1005F800012905D1002A00D078E080225202134355
:10060800626A002A05D0E02149000A40A16A0A432B
:100618001343EA684A490A401343EB6023006268BF
:100628003C33E16C1B78970FBF079C463943012B7D
:1006380008D1236C666C33430B43A16C0B436146B2
:100648003B4319432B693F4F3B400B4380212B61B0
:1006580053005B08C9058B420CD080231B069A42C5
:1006680008D03949394F0B683B40F027BF033A405F
:1006780013430B60072170276B69626B8B4313432D
:100688006B616969A36BB9431B010B436B6100285C
:1006980034D11023A96A5B420B43AB6207216B6913
:1006A8000B409A4239D10023E365A26D03339A4384
:1006B800023B1343A365019805B0F0BDAA6824491D
:1006C8000A401343AB60234B23491868FFF7FAFC31
:1006D800013040000390039B002B00D146E7039BA9
:1006E800013B0393F7E78021890377E72022A76D71
:1006F8003A43A265E26D1143E16581E780239B03DC
:100708009842CBD11C21AB6AE369013B9B000B40AB
:100718002C3999400B00216EBEE71223A26D9A4333
:10072800023B1343A3650123E26D1343E3650123F1
:100738000193C0E7A36D1A43A265F8E7FDFEFFFF2A
:100748000102DEFF02FCFF1F08270140FFFFC3FF75
:10075800E8FFFF6F44000020400D0300F7B546692D
:1007680004000F00082E0AD003680120DB68042665
:10077800034204D02023A26D1343A365FEBDFFF7F7
:10078800C7FE019025682B681E4224D08023A26DE5
:100798009B001343A365C023EA681B011A4215D1C5
:1007A800A37E002B12D12B681B070FD52800FFF75B
:1007B800C1FE002827D10C226B6893436B60A26DA1
:1007C800174B1A400433FF331343A365237E002BD2
:1007D80022D00020D2E77B1CD5D0FFF799FE019BE1
:1007E800C01AB84201D8002FCCD1320023681B6848
:1007F8001A401E42C6D10423A16D54340B436360D2
:1008080003202270BAE72023A26D1343A3650123B6
:10081800E26D1343E365D9E70C232B60D9E7C046A3
:10082800FEFEFFFF0368186C704700000023F0B558
:1008380085B003930300009154331A780400022012
:10084800012A4CD0012227691A7025682800FFF771
:1008580071FE002800D0E9E0009B80215B68090652
:100868009C46042362469F43009B1B68022A00D1D2
:10087800B0E05A03520B8F4233D1A96A0A43AA62E5
:10088800009A6869926819026B4E0A4032408843A0
:1008980002436A61002B1EDAE021684A684815683D
:1008A80049042940834200D07EE0802000040542AC
:1008B80011D11368634D2B400B431843624B1060F2
:1008C80018686249FFF7FEFB431C0C20584303904D
:1008D800039B002B64D1002000235434237005B0FF
:1008E800F0BD1F2167460F401039B940CE4301962D
:1008F800266E8E433100002A12D1980E1F32104006
:10090800B840624608439208E169013220668A428B
:10091800B6D8A96A01989A00120FBA400140ADE70B
:1009280001221342ECD1921801201342E8D11000A1
:1009380002321342E4D101301A07E1D40130DA0659
:10094800DED401309A06DBD401305A06D8D40130FF
:100958001A06D5D40130DA05D2D401309A05CFD49D
:1009680001305A05CCD401301A05C9D40130DA0453
:10097800C6D401309A04C3D401305A04C0D401301B
:100988001A04BDD40130DA03BAD401309A03B7D4BB
:1009980080221800D20210401342B1D01220AFE7D3
:1009A800039B013B039393E7294883420BD18020A3
:1009B8004004054200D08EE71368224D2B400B43BC
:1009C8001843106087E72348834200D083E78020DC
:1009D800C003EEE78F4204D1AA6A5903490B8A4340
:1009E800AA62002B00DB76E7144A15481168834297
:1009F80008D1A02310685B040B40124901400B4347
:100A0800136068E71248834203D1C02310681B04AF
:100A1800F2E71048834200D05DE7C0204004136825
:100A28000140084803401943116054E72023A26D90
:100A380001201343A3654FE700FFFF070827014084
:100A4800001000B0FFFF3FFE44000020400D0300EF
:100A5800004000B8002000B4806D704770B505688C
:100A680004002800FFF766FD002801D1002070BDB2
:100A7800AB689B0705D4AA680F4B1A401023134391
:100A8800AB60FFF745FD0426050023689B683342E9
:100A9800ECD0FFF73DFD401B0228F6D923689B6880
:100AA8003342F2D010230120A26D1343A365E36DF6
:100AB8000343E365DBE7C046E8FFFF7F0023F7B5A4
:100AC80002680193916801330400194201D00020A3
:100AD800FEBD90682249084208D01022A16D0A4341
:100AE800A265E26D13430120E365F1E791681D4FAC
:100AF80039400B4393601C4B1B681B0221D4637E57
:100B0800012BE4D0FFF704FD0125060022681368D5
:100B18002B42DCD193682B4203D193683B402B4393
:100B28009360FFF7F5FC801B0228EFD923681B6848
:100B38002B42EBD11023A26D1343A365E36D2B4326
:100B4800D1E70A4B0A491868FFF7BCFA013001904F
:100B5800019B002BD3D0019B013B0193F8E7C046D2
:100B680017000080E8FFFF7F0827014044000020AD
:100B7800400D030070B504000068FFF7DBFC0600B9
:100B88000220002E1DD1250054352B78012B18D0BA
:100B9800012320002B70FFF791FF002812D1A26DCE
:100BA800094B1A4080235B0013431C22A36523686A
:100BB800E0651A6028709968044A114004220A43C3
:100BC8009A6070BD2E70FCE7FEF0FFFFE8FFFF7F24
:100BD8000221036870B59A6804000A4205D101220F
:100BE8009868104203D1002070BD9B68FBE7052080
:100BF8009D680540012D1ED19A6813480240114393
:100C0800032299601A60FFF783FC060023689B683B
:100C18002B42E8D0FFF77CFC801B0228F6D923681A
:100C28009B682B42F2D01023A26D1343A365E36D9A
:100C38002B43E36506E01023A16D0B43A365E36D29
:100C48001A43E2650120CFE7E8FFFF7F70B5040093
:100C58000125002840D00223826D13438365FFF7E6
:100C6800FDFE051E0BD12000FFF7B2FF051E01D1C6
:100C78000123A3652268194993680B409360236890
:100C880017495A6800260A405A60164A16491A60D7
:100C9800DA6820000A400721DA605A6954348A4326
:100CA8005A619A6A9E621A6A10490A401A625A6A16
:100CB8000A405A62DA6A0A40DA621A690C499200F2
:100CC80092081A610B4A13680B40136002F09CFDEE
:100CD800A660E66066602670280070BDE8FFFF6FBA
:100CE80060FCFFFF9F03000000021E8300F000F07D
:100CF800FFFF03FE0827014070B50600543633781D
:100D080004000220012B12D0012520003570FFF7C6
:100D1800A5FE002809D12000FFF75AFF002804D1BA
:100D2800A36D034A13401D43A5650023337070BDAE
:100D3800FEFEFFFFF0B500230500022285B00293F6
:100D480054352B7804000092012B3ED001262E70DA
:100D5800FFF73EFF2368009099680A00324031424D
:100D680006D01023A26D1343A36500232B702CE03B
:100D78008026A06D4249360608400631FF310143FE
:100D8800A165D8683F49B44608400190D9683E48F3
:100D980001400820D9603D4967469E680E403E43A1
:100DA8009E609E68002E13DA029E01360296029F0C
:100DB800374EB742F5D91223A26D9A43023B13432B
:100DC800A36500232B7001230093009805B0F0BDA4
:100DD8001E007F27B436366801383E409219002835
:100DE800DAD101269868D2080840304398608020FC
:100DF8001F69C00587421CD31E007F27B4363068A0
:100E0800B843104330609A680126114002220A4311
:100E18009A60FFF77DFB070023689A6832421ED16B
:100E2800DA6801990A43DA600322A36D93433343D6
:100E38009AE718480768F02080033840E0277F03C6
:100E4800B842D9D3800C03388640039603984008EB
:100E5800039003980028CFD003980138F8E7FFF7EC
:100E680057FBC01B0228D7D923689B683342D3D0CD
:100E78001023A26D1343A365E36D3343E365A2E733
:100E8800FDFEFFFF03800000FC7FFFFFE8FFFF7F00
:100E9800FFF102000827014010B5FF2403220B00D0
:100EA80021000240D20091409B012340C943934056
:100EB80000280ADBC0240B4A800880008018A400A0
:100EC80002590A401343035110BD0F22104008383D
:100ED800054A800880008018C26911401943C16121
:100EE800F2E7C04600E100E000ED00E0002805DB85
:100EF8001F2318401E3B8340014A13607047C046B9
:100F080000E100E0002809DB1F2318401E3B834056
:100F1800034AD367BFF34F8FBFF36F8F7047C04645
:100F280004E100E08022431E5204012093420DD2C6
:100F3800C021074A07485360036A09061B021B0AB7
:100F48000B43036200200723906013607047C0467C
:100F580010E000E000ED00E0002807DB1F23C022BE
:100F680018401E3B8340024952008B507047C046D0
:100F780000E100E0704710B5FFF7FCFF10BD7047B7
:100F880010B5041E01D1012010BD437FDAB2002B39
:100F980002D10277FFF7F3FF022363772379002B4F
:100FA8001CD118212368124A5A619A688A439A60A8
:100FB80062792368002A19D1013A60211A619A6876
:100FC80000208A4361690A4380219A609A688A43AB
:100FD800A1690A439A6001236377D5E72000E26894
:100FE800A16800F007F80028E2D0CCE72269E4E71E
:100FF800B71DC10430B501250400280029420ED0D0
:101008001F23013B21D30800D8402842F9D0102AD9
:1010180014D005D8002A08D00120082A12D030BDE3
:101028000120182AFBD1062BF9D820684161182124
:1010380083688B43134383600020F0E70120072B6C
:10104800F3D9ECE70F2BF0D9E9E70120102AE6D015
:10105800E5D8002AE3D1E8E7F0B5002808D0841DD8
:10106800E37F411D022B05D00423C3630023CB7704
:101078000120F0BD0E250268466C1368AB4313606F
:101088003368104D2B403360012316689E43166069
:10109800026C1B331A401B3B93400B4E77683B4353
:1010A8007360C26C836C5A60036D002B05D01A689C
:1010B8002A401A60436D826D5A6001230020E3774D
:1010C800C877D6E7FFFEFFFF00000240F8B5811D94
:1010D800CB7F022B03D00423C3630120F8BD0E2469
:1010E80002681C271368456CA34313600123146826
:1010F8009C4314602A68104C22402A60026C0F4DF1
:101108003A4093406E6833436B60C26C836C5A609C
:10111800036D002B05D01A6822401A60436D826D5A
:101128005A6001230022CB77431DDA77836B934201
:1011380000D098470020D1E7FFFEFFFF00000240E3
:1011480070B5084D0400EB68184202D0E86002F060
:101158001FFD2B69234203D020002C6102F01CFDE7
:1011680070BDC0460018024010B5114C11492368E3
:1011780002000B4003432360802300209B009A4217
:101188000ED10D4B0D49186806235843FEF79AFFF8
:101198008022431CD200616908001040114200D12E
:1011A80010BD002B01D0013BF5E70320F8E7C0464E
:1011B80000700040FFF9FFFF4400002040420F008C
:1011C800F0B5040085B0002802D1012005B0F0BDBB
:1011D8000368DB0710D423689B075CD423681B07CC
:1011E80000D5C1E023685B0700D5F2E0E369002B76
:1011F80000D079E10020E9E73822AF4DAB68134011
:10120800EA68102B09D1D3439B0708D12B689B03AD
:10121800E1D56368002BDED1D7E7082BF6D0802212
:1012280063685202934211D12A6813432B60FFF777
:101238006FF980270600BF022B683B42CBD1FFF72E
:1012480067F9801B6428F7D90320BFE7A021C902EA
:101258008B4208D180232968DB020B432B602B6863
:101268001A432A60E3E72A6894490A402A602A68F0
:1012780093490A402A60002BD9D1FFF749F9802702
:101288000600BF022B683B42A5D0FFF741F9801B3F
:101298006428F7D9D8E73822874DAB681340EA6845
:1012A800102B28D103210A40022A26D12A68520588
:1012B80003D5E268002A00D187E769686269814836
:1012C800120201400A436A60002B0CD12B687E4A47
:1012D8007E491340226913432B602B687C4A9B0488
:1012E8005B0FDA400A607B4B1868FFF7C9F80028E3
:1012F80000D173E769E7002BD8D0E368002B20D032
:101308002B68714A802713402269FF0013432B6022
:1013180080232A685B0013432B60FFF7F9F8060067
:101328002B683B4207D06A68636966491B020A401A
:1013380013436B6052E7FFF7EBF8801B0228EFD9E5
:1013480082E72B68644A802713402B60FFF7E0F898
:101358000600FF002B683B4200D13FE7FFF7D8F8B3
:10136800801B0228F6D96FE73822534DAB6813402B
:10137800182B08D12B6E9B0700D433E7A369002BE9
:1013880000D02FE721E7A2690123002A10D02A6E96
:10139800022713432B66FFF7BBF806002B6E3B4270
:1013A80000D01FE7FFF7B4F8801B0228F6D94BE7F7
:1013B8002A6E02279A432A66FFF7AAF806002B6EC0
:1013C8003B4200D10EE7FFF7A3F8801B0228F6D9AD
:1013D8003AE73822384DAB681340202B08D1EB6D23
:1013E8009B0700D402E7A368002B00D0FEE6ECE6DA
:1013F80080220021EB6B52050091134208D1EB6B60
:101408001343EB63EB6B13400393039B012300939C
:101418008027324E7F0033683B4215D0A368012BEA
:1014280022D1EA6D1343EB65FFF772F80227060035
:10143800EB6D3B4238D0009B012B00D0D6E6EB6B1E
:10144800274A1340EB63D1E633683B433360FFF729
:101458005FF8019033683B42E0D1FFF759F8019BF0
:10146800C01A0228F6D9EFE6EA6D052B05D1013B33
:101478001343EB65EA6D0123D4E701218A43EA654A
:10148800EA6D03318A43EA65002BCDD1FFF740F8B6
:1014980002270600EB6D3B42CDD0FFF739F8114B20
:1014A800801B9842F6D9CFE6FFF732F80D4B801B28
:1014B8009842BDD9C8E6C04600100240FFFFFEFFB3
:1014C800FFFFFBFFFF80FFFFFFC7FFFF4400002077
:1014D8000024F40004000020FFFEFFFF007000401D
:1014E800FFFFFFEF8813000038213F4DAA680A402C
:1014F800102A51D03D4A022B38D12B68802713403F
:101508002B60FFF705F80600BF042B683B4227D184
:10151800616A236AEA680B43354980260A40134307
:10152800E26AB6041343226B1343A26A12021343FE
:10153800EB6080232A685B0413432B608023EA68EE
:101548005B051343EB60FEF7E3FF04002B683342AF
:1015580000D04FE6FEF7DCFF001B0228F6D973E641
:10156800FEF7D6FF801B0228CFD96DE62B688026B0
:1015780013402B60FEF7CCFF0400B6042B683342FF
:1015880004D1EB681B4A1340EB6033E6FEF7C0FF5B
:10159800001B0228F2D957E6012B00D115E60322D9
:1015A800E868216A02408A4200D00EE67022616A29
:1015B80002408A4200D008E6FE21A26AC901014021
:1015C8001202914200D000E6F822E16A920302403A
:1015D8008A4200D0F9E5236B400F4007C01A431E2A
:1015E8009841C0B2F2E5C04600100240FFFFFFFE7E
:1015F8008C80C11FFCFFFEEF382370B51D4CA2681C
:101608001A4205D123681C489B045B0FD84070BD63
:10161800A2681A40082A27D0A2681A40102A17D1AF
:10162800E368E168DB43E5684906490F6F322D0A34
:10163800013115409B0709D11048FEF743FDE168C9
:101648006843490F0131FEF73DFDE0E70A48F4E73A
:10165800A2681A40202A09D0A26800201340182B3B
:10166800D5D1FA20C001D2E70448D0E78020000293
:10167800CDE7C046001002400024F40000127A00B2
:10168800F7B504000D00002801D10120FEBD072791
:101698004A4E33683B408B422AD3226893073BD497
:1016A800D20748D4072733683B40AB420AD933688E
:1016B800BB432B433360FEF72BFF019033683B405D
:1016C800AB426BD123683E4D5B076FD4FFF794FFA5
:1016D800AB683C491B051B0F9B005B581F210B4047
:1016E800D840394A394B10601868FEF7C9FECDE773
:1016F8003368BB430B433360FEF70AFF019033683E
:101708003B40AB42C9D0FEF703FF019BC01A304BE8
:101718009842F4D90320B9E72949530704D5E023AF
:101728008868DB0103438B608B682A480340A06804
:1017380003438B60B4E76268214F012A19D13B68E3
:101748009B03A2D50721BB688B431343BB60FEF7FD
:10175800DFFE01903823BA681A406368DB009A42BA
:10176800A0D0FEF7D5FE019BC01A194B9842F1D9BB
:10177800D0E7022A03D13B689B01E3D485E7002A1E
:1017880003D13B685B05DDD47FE70223032A03D13D
:10179800396E1942D6D178E7F96DFAE7FEF7B8FE47
:1017A800019BC01A0A4B984288D9B3E7AB680A4A2A
:1017B8001340E2681343AB6088E7C046002002404C
:1017C80000100240A46E000844000020040000201D
:1017D80088130000FFF0FFFFFF8FFFFF064B07494C
:1017E8009B68074A5B045B0F9B005B581F211068CE
:1017F8000B40D8407047C04600100240846E000875
:1018080044000020072230B5F025094B02609C688F
:101818002D01144044609C682C408460E0249B683F
:10182800E4012340C360034B1B6813400B6030BDC9
:10183800001002400020024001000300012010B502
:101848003D310C78E2B2844218D1001808701B6848
:101858000C498B4205D00C498B4202D00B498B4274
:101868000DD19A680A490A40062A06D007398A42E1
:1018780003D0012219680A431A60002010BD1968B4
:10188800F9E7C046002C0140000400400040014038
:1018980007000100020030B502243C32157803002D
:1018A8002000012D08D018003D3004701B685961D4
:1018B800012303700020107030BD7047704700008E
:1018C8000222036870B5DD681E69040016420DD057
:1018D80015420BD0053A1A61043202779B699B07BF
:1018E80000D17CE001F000FF0023237704231E428F
:1018F80012D01D4210D00522236852421A610732C5
:1019080022779A69C0239B0020001A4200D16CE01C
:1019180001F0EAFE0023237708231E420FD01D4260
:101928000DD00922236852421A610D322277DB69F1
:1019380020009B075FD001F0D7FE002323771023F8
:101948001E4211D01D420FD01122236852421A6143
:1019580019322277DA69C0239B0020001A4250D03E
:1019680001F0C2FE0023237701231E4208D01D4246
:1019780006D002222368524220001A6101F089FE33
:1019880082239B011E4207D02B0605D52368204AD7
:1019980020001A6100F0F9F9F30507D52B0605D5E3
:1019A80023681C4A20001A6100F0F0F940231E4207
:1019B80008D01D4206D041222368524220001A61F5
:1019C800FFF77CFF20231E4208D01D4206D02122AB
:1019D8002368524220001A6100F0D6F970BD01F068
:1019E8007FFE2000FFF769FF7EE701F079FE200007
:1019F800FFF763FF8EE701F073FE2000FFF75DFF3E
:101A08009BE701F06DFE2000FFF757FFAAE7C046ED
:101A18007FDFFFFFFFFEFFFF10B51D4C0368A042EC
:101A280002D01C4A904208D1702293434A6813435B
:101A3800194A1A40CB6813430BE0184A9042F7D072
:101A4800174A9042F4D0174A9042F1D0164A904271
:101A5800EED0802293434A69134303608B68C362C4
:101A68000B688362A04208D00D4B984205D00D4BFD
:101A7800984202D00C4B984201D10B6903630122B2
:101A880042610369134202D003699343036110BDA5
:101A9800002C014000040040FFFCFFFF0020004034
:101AA80000400140004401400048014070B5040076
:101AB8000120002C23D025003D352B78DAB2002BED
:101AC80005D123003C3320001A7002F095FB022355
:101AD8002B702068211DFFF79FFF220001230020A3
:101AE8004832137047340A3A137053709370D370A6
:101AF800137153719371D371137223702B7070BD6E
:101B08001F2310B5012419408C408A40036AA3435F
:101B18000362036A1A43026210BD0000030010B595
:101B280008291ED005D8002911D0042916D0020092
:101B380004E002000C2917D0102917D001204332E5
:101B48001278824209D11A000220433211E00200C1
:101B58003E320120147884420AD010BD02003F3280
:101B6800F7E702004032F4E74132F2E74232F0E7A9
:101B7800022010701C6801222000FFF7C1FF144BDF
:101B88009C421FD0134B9C421CD0134B9C420FD03D
:101B9800124B9C420CD0124B9C420ED1A368114AA6
:101BA8001340062B02D0073A934206D10020D4E70F
:101BB8008023626C1B02134363640123226813436E
:101BC8002360F3E78023626C1B0213436364E5E739
:101BD800002C014000400140004401400048014001
:101BE800000400400700010010B5FFF797FF10BD83
:101BF800030070B5082950D009D800291BD0042942
:101C080044D00200433214780432E0B208E0020003
:101C180047320C2948D0102957D043300478E0B215
:101C28001278D2B2012C53D1012A2ED11A000220E7
:101C38004332107044E005001C003E352E784434D1
:101C4800F0B22278D2B2012E42D1012A1DD102224D
:101C58002A7022701C6801222000FFF751FF1D4BDB
:101C68009C4205D01C4B9C4202D01C4B9C4207D185
:101C7800A3681B4A1340062B06D0073A934203D0A9
:101C88000123226813432360002070BD05001C0057
:101C98003F352E784534F0B2D3E705001C004035B7
:101CA8002E784634F0B2CCE7040041342578127817
:101CB800E8B2D2B2012D0BD1012AE6D1022222705C
:101CC8001A00022047321070C4E704004234EDE7DE
:101CD8000120DAE7002C01400004004000400140E8
:101CE800070001000F2310B5042419408C408A40D6
:101CF800036AA3430362036A1A43026210BD000029
:101D08000300020010B5002905D1443201201478DF
:101D180084420AD010BD042901D14532F6E70829CA
:101D280001D04732F2E74632F0E7022010701C6813
:101D380004222000FFF7D6FF8023626C1B021343A6
:101D480063640B4B9C4205D00A4B9C4202D00A4B61
:101D58009C4207D1A368094A1340062B06D0073ACC
:101D6800934203D001232268134323600020D1E764
:101D7800002C014000040040004001400700010021
:101D880010B5FFF7BDFF10BD7047704770470000E2
:101D980030B5EFF31084012282F310880168134DE7
:101DA8000B682B400B6084F31088EFF3108182F3EB
:101DB800108802680E4C93682340936081F3108862
:101DC800C36E012B0AD1EFF3108183F3108810241E
:101DD80002681368A343136081F31088030020226C
:101DE8008C331A600023C366436730BDDFFEFFFFF4
:101DF800FEFFFFEF30B5EFF31084012282F3108865
:101E0800802501680B68AB430B6084F31088EFF3FF
:101E1800108182F31088402302681068034313601E
:101E280081F3108830BD030088331B6810B5212B5F
:101E380006D1020056321388002B02D1FFF7DAFFD1
:101E480010BD036D01681C7801338C62036513882B
:101E5800013B9BB21380F3E7030088331B6810B57E
:101E6800212B06D1010056310B88002B02D1FFF738
:101E7800C1FF10BD026D046813880232DB05DB0D5B
:101E8800A36202650B88013B9BB20B80F1E700005F
:101E9800030088331B6870B5212B21D10300010092
:101EA80080246A331B885631002B19D00A88002AEF
:101EB80017D1EFF31084013282F310880168114DB5
:101EC8008B682B408B6084F31088EFF3108182F3CA
:101ED80010884023026810680343136081F3108858
:101EE80070BD0568EA69224208D0026D1678013291
:101EF800AE6202650A88013A92B20A80013B9BB23F
:101F0800D2E7C046FFFF7FFF030088331B6870B528
:101F1800212B21D10300010080246A331B8856310C
:101F2800002B19D00A88002A17D1EFF31084013248
:101F380082F310880168124D8B682B408B6084F304
:101F48001088EFF3108182F310884023026810682C
:101F58000343136081F3108870BD0668F26922425A
:101F68000AD0056D2A880235D205D20DB262056500
:101F78000A88013A92B20A80013B9BB2D0E7C04678
:101F8800FFFF7FFF7047000030B5050088352C68DB
:101F980003000220202C37D10138002934D0002A30
:101FA80032D080209C684001844205D118690028FD
:101FB80002D10130014227D11965190054310A8034
:101FC8004A801A00002190321160212280212A6063
:101FD8008022586E92054901904216D1144A8C42CB
:101FE80003D11969002900D1124A9A67EFF31081C9
:101FF800012282F310881A68802390681B04034327
:10200800936081F31088002030BD0B4A8C4203D1C5
:102018001969002900D1094A9A67EFF31081012252
:1020280082F310881A688023106803431360E8E776
:10203800991E0008111F00082F1E0008611E0008C5
:10204800806A0023020010B55E321380083A1380BC
:1020580002F060FB10BD7047F7B50168C14DCB6950
:1020680004000A6888682B4210D120252B4200D131
:102078009BE08026760515400640354300D194E064
:10208800636F2000002B00D085E085E0B64D054049
:102098000095B64D009E1540354300D185E02500DA
:1020A80001269035334205D0D70503D50E622F6837
:1020B8003E432E60022633420CD0C7070AD52700BC
:1020C8000E6290373E680197B446042667463E4341
:1020D800019F3E60042633420CD0C7070AD527006B
:1020E8000E6290373E680197B446022667463E4323
:1020F800019F3E600826B446334209D02027009E3F
:102108001740374304D066460E622F683E432E6060
:1021180080263601334206D0570104D50E622021AD
:102128002E68314329602968002935D020210B42C7
:102138000AD080235B0511400340194304D0636F24
:10214800002B01D02000984722682B68402796680A
:1021580028223E40134020001E4322D0FFF718FEDD
:1021680023689B683B4218D0EFF31081012383F367
:102178001088250004CD9368BB43936081F31088D1
:10218800E86F002809D07A4B8363FEF79FFF002889
:1021980002D0E86F836B9847F7BD200002F0BAFAC7
:1021A800FAE702F0B7FA2E60F6E7E56E012D00D0E7
:1021B8009FE01026334200D19BE0324200D198E0E4
:1021C8000E62896840230A001A40194257D0211D1F
:1021D800CA6F1068426892B2002ADDD027005C37C7
:1021E8003F889742D8D927005E373A800268202076
:1021F8008446104000906046024232D1EFF31087C7
:1022080085F3108820685B4E02683240026087F3CD
:102218001088EFF3108785F3108820688268AA4336
:10222800826087F31088EFF3108785F310882068A1
:1022380082689A43826087F31088230062468C3351
:102248001A60009BE366EFF3108085F3108822681C
:102258000F351368AB43136080F31088C86FFEF71F
:10226800FBFE02232200236723005C325E331B88B7
:102278001188C91A89B22000FFF7EDFE8CE7230008
:1022880020005C335E301988038800889BB20028E0
:1022980000D181E7C91A89B2002900D17CE7EFF3A0
:1022A800108785F310882068334E03683340036035
:1022B80087F31088EFF3108785F3108820682F4E76
:1022C80083683340836087F31088230020208C3391
:1022D8001860E2666267EFF3108085F310881025B6
:1022E80022681368AB43136080F3108802232367C6
:1022F800C1E780256D032B4206D0460204D5200095
:102308000D6202F055FA47E780210B4207D080257D
:102318002D0411402840014301D0A36FB1E64021AC
:102328000B4216D00A4214D0EFF31080012383F336
:102338001088226813688B43136080F31088230089
:10234800202288331A6000232000A36702F0DBF9FB
:1023580022E7190214D5510012D5200000F08BFE97
:102368001AE7C0460F080000010000102001000411
:1023780049200008FFFEFFFFDFFEFFFFFEFFFFEF23
:10238800DB0100D408E7002A00DB05E7200000F0A5
:1023980071FE01E70100F8B503008C310C68603369
:1023A8001A880368222C57D15B6A846D1340020097
:1023B8002370836D5E32013383651388013B9BB2C2
:1023C800138013889CB2002B42D1EFF3108601339F
:1023D80083F310880568234F2A683A402A6086F3F9
:1023E8001088EFF3108683F310880568AA689A436B
:1023F800AA6086F3108820220A600268046752687F
:10240800446712020AD5EFF3108183F3108802683B
:10241800154C13682340136081F31088C36E012B99
:1024280017D10022C266EFF3108483F31088016885
:102438000F330A689A430A6084F310880268D169E6
:10244800194200D0136203005C331988FFF703FEBA
:10245800F8BD02F051F9FBE7082299690A439A612D
:10246800F6E7C046DFFEFFFFFFFFFFFB0200F8B5FF
:1024780003008C32116860331C880368222956D106
:10248800596A836D214019800100023383655E31EA
:102498000B88013B9BB20B800B889CB2002B42D16E
:1024A800EFF31086013383F310880568224F2968FB
:1024B8003940296086F31088EFF3108683F310887B
:1024C8000568A9689943A96086F3108820211160DE
:1024D800026804675268446712020AD5EFF3108154
:1024E80083F310880268154C13682340136081F346
:1024F8001088C36E012B17D10022C266EFF3108437
:1025080083F3108801680F330A689A430A6084F3DA
:1025180010880268D169194200D0136203005C3345
:102528001988FFF798FDF8BD02F0E6F8FBE70822E6
:1025380099690A439A61F6E7DFFEFFFFFFFFFFFB99
:102548000300F0B560331B8885B00293036804006C
:10255800DD691A6803929A68019202008C32126847
:10256800222A00D0C2E0030068331B88002B02D067
:1025780020231D4225D123005E331B889AB2002BED
:102588001DD0230068331B88934218D9EFF31080BD
:10259800012282F310882168574D8B682B408B608D
:1025A80080F31088554B6367EFF3108182F310882E
:1025B8002023226810680343136081F3108805B054
:1025C800F0BD2600236802995B6AA26D0B40137068
:1025D800A36D5E360133A36533882268013B9BB245
:1025E80033800723D5691D422FD0063B1D4208D0F2
:1025F8000399C90505D52100136290310868034382
:102608000B6002231D4209D00199C90706D5210094
:10261800136290310868DB1803430B6004231D42E2
:1026280009D00199C90706D51362220090321168B2
:10263800023B0B431360270090373B68002B04D004
:10264800200002F067F800233B60338899B2002B22
:1026580000D08DE7EFF31086013383F310882068EC
:10266800274F02683A40026086F31088EFF310861D
:1026780083F310882068234F82683A40826086F38B
:102688001088220020208C3210602268216752684E
:10269800616712020AD5EFF3108183F3108822686C
:1026A800194813680340136081F31088E36E012B07
:1026B80018D10022E266EFF3108083F310882168B6
:1026C8000F330A689A430A6080F310882268D16938
:1026D800194200D0136223005C3320001988FFF7E9
:1026E800BAFC45E7200002F007F841E7082299699B
:1026F8000A439A6163E7C046FFFFFFEF9D23000886
:10270800FFFEFFFFFEFFFFEFFFFFFFFB0300F0B53B
:1027180060331B8885B0029303680400DD691A687A
:1027280003929A68019202008C321268222A00D021
:10273800C0E0030068331B88002B02D020231D4211
:1027480025D123005E331B889AB2002B1DD02300AD
:1027580068331B88934218D9EFF31080012282F363
:1027680010882168564D8B682B408B6080F3108849
:10277800544B6367EFF3108182F31088202322689B
:1027880010680343136081F3108805B0F0BD26007C
:1027980023680298596AA26D014011800232A2652D
:1027A8005E363288013A92B232800722DD691542DC
:1027B8002FD0063A154208D00399C90505D521003E
:1027C8001A629031086802430A600222154209D051
:1027D8000199C90706D521001A6290310868921834
:1027E80002430A600422154209D00199C90706D597
:1027F8001A6222000223903211680B4313602700EB
:1028080090373B68002B04D0200001F083FF0023A1
:102818003B60338899B2002B00D08FE7EFF3108626
:10282800013383F310882068274F02683A4002601A
:1028380086F31088EFF3108683F310882068234FFF
:1028480082683A40826086F31088220020208C3209
:102858001060226821675268616712020AD5EFF397
:10286800108183F3108822681948136803401360A5
:1028780081F31088E36E012B18D10022E266EFF392
:10288800108083F3108821680F330A689A430A601E
:1028980080F310882268D169194200D0136223009E
:1028A8005C3320001988FFF7D6FB47E7200001F0CA
:1028B80023FF43E7082299690A439A6165E7C046FE
:1028C800FFFFFFEF75240008FFFEFFFFFEFFFFEF8D
:1028D800FFFFFFFB0200F0B58432117803000220ED
:1028E80001291FD01C00012188342230117020607A
:1028F800EFF3108681F310880C271D682868B84309
:10290800286086F31088EFF3108081F31088196827
:1029180008230D682B430B6080F3108820230020C8
:1029280023601070F0BD0200F0B584321178030006
:10293800022001291FD01C00012188342230117087
:102948002060EFF3108681F310880C271D68286833
:10295800B843286086F31088EFF3108081F310885D
:10296800196804230D682B430B6080F3108820231B
:10297800002023601070F0BD030088338C301B6882
:10298800006818437047000070B504002569A26804
:1029980023682A4365691968C0692A434C4D024374
:1029A80029400A431A605A684A49256A0A40E16878
:1029B8000A435A60A26999682A43474D29400A4345
:1029C8000F219A60DA6A8A43616A0A43DA62434AE3
:1029D800934218D10322424B5B6D1340022B2AD03D
:1029E800934222D0012B46D080231B02984266D105
:1029F800FEF7F4FE002846D100203A4BA3660023D8
:102A08006367A36770BD384A93422DD10C22344BBB
:102A18005B6D1340082B0ED005D8002BE4D0042B97
:102A280029D00120E9E70C2BFBD180231B02984217
:102A380029D0180004E080231B02984222D02B489A
:102A4800626A2B4B5200D15AFDF73CFB65686B0854
:102A5800C0182900FDF736FB0200264B103A9A42AF
:102A6800DFD82368D860C7E7234A9342BCD0234AFB
:102A78009342D6D1B8E780231B02984224D1FEF7AF
:102A8800BBFDB7E71948626A194B5200D15AFDF7E6
:102A980019FB656840006B08C0182900FDF712FB98
:102AA8000200144B103A9A42BBD80F2302000007C9
:102AB8009A4393B2400F22680343D3609CE7FEF722
:102AC8008DFE002898D0BBE7FEF796FDF9E7C046D3
:102AD800F369FFCFFFCFFFFFFFF4FF11003801407C
:102AE8000010024001000100004400400024F400EE
:102AF800C46D0008EFFF000000480040004C004093
:102B0800836A30B51A0706D50168284C4A682240FE
:102B1800846B22434A60DA0706D50168244C4A6868
:102B28002240C46A22434A609A0706D50168214CAC
:102B38004A682240046B22434A605A0706D5016856
:102B48001D4C4A682240446B22434A60DA0606D587
:102B580001681A4C8A682240C46B22438A609A062C
:102B680006D50168164C8A682240046C22438A60A4
:102B78005A0610D50168134D4A68446C2A4022430E
:102B88004A6080225203944205D14A680E4C224082
:102B9800846C22434A601B0606D502680B495368B9
:102BA8000B40C16C0B43536030BDC046FF7FFFFF35
:102BB800FFFFFDFFFFFFFEFFFFFFFBFFFFEFFFFF34
:102BC800FFDFFFFFFFFFEFFFFFFF9FFFFFFFF7FFA5
:102BD800F7B504000D00170000932268D3692B4055
:102BE8005B1B59424B41BB4201D0002026E0089BA9
:102BF8000133F3D0FDF78CFC009BC01A089B984268
:102C08002DD8002B2BD023681A685207E5D52A0047
:102C18004021403A8A43E0D0DA6908261100314061
:102C2800019132420BD020001E62FFF7B1F8230059
:102C380090331E600023012084342370FEBD80225F
:102C4800D96912011142C8D01A622000FFF7A0F812
:102C58002300202290331A60019B843423700320C0
:102C6800ECE7F0B51700020087B0883205931368C7
:102C780004000D000220202B39D10138002936D05C
:102C8800002F34D08023A1685B01994204D12369C5
:102C9800002B01D105422AD12300002690331E6063
:102CA80021231360FDF734FC230054331F800233C3
:102CB80003931F808023A26804905B019A4204D189
:102CC8002369B34201D12E001D00230056331B880F
:102CD8009AB2002B0DD1059B200000934021049B44
:102CE800FFF776FF20238834236000280ED107B031
:102CF800F0BD059B0022009380212000049BFFF774
:102D080067FF002804D02023883423600320EEE7DF
:102D18002268002D0BD133880236DB05DB0D936268
:102D2800039B039A1B88013B9BB21380CDE72B784A
:102D380001359362F4E70000030073B50026040030
:102D480090331E60FDF7E4FB236805001B681B0732
:102D58001FD58021284B32000093890303002000EF
:102D6800FFF736FFB04214D0EFF31081012383F34D
:102D780010888020226813688343136081F31088C9
:102D88002300202288331A60032000238434237010
:102D980076BD260023688C361B685B0723D5802107
:102DA800154B0022009320002B00C903FFF710FFEA
:102DB800002818D0EFF31080012282F310882168D0
:102DC8000E4D0B682B400B6080F31088EFF31080DA
:102DD80082F3108821688B6893438B6080F3108896
:102DE80020233360D0E723002022002088331A6094
:102DF8003260E0662067C8E7FFFFFF01DFFEFFFFE4
:102E080070B5041E01D1012070BD050088352B68FE
:102E1800002B04D1020084321370FFF7B3F8242387
:102E2800012122682B6013688B431360A36A002B6F
:102E380002D02000FFF764FE2000FFF7A5FD01285F
:102E4800E1D0236807495A6820000A402A215A60BD
:102E58009A688A439A60012219680A431A60FFF740
:102E68006BFFD1E7FFB7FFFF70B5041E01D101204A
:102E780070BD050088352B68002B04D10200843210
:102E88001370FFF77FF82423012122682B60136851
:102E98008B431360A36A002B02D02000FFF730FE9B
:102EA8002000FFF771FD0128E1D0236809495A681D
:102EB80020000A4022215A609A688A439A600822B0
:102EC80099680A439A60012219680A431A60FFF751
:102ED80033FFCDE7FFB7FFFF03005C3370B58165B3
:102EE80080241A805A800023816843676401A142C4
:102EF8003FD10369591E8B41FF215B428B434149F6
:102F08005B18010060310B800300002190331960C9
:102F18002231043B1960EFF31084012383F31088F6
:102F280001688D682B438B6084F31088802580218D
:102F3800466E84680369AD054901AE423FD105007C
:102F480068352D8895423AD88C4233D1002B22D14E
:102F58002D4B4367EFF31081012383F310888023FF
:102F680002685B0590680343936081F31088002032
:102F780070BD002905D101697F230029C1D18033A3
:102F8800BFE780246405A142BBD101693F23002922
:102F9800B7D14033B5E71D4B4367EFF310810123E9
:102FA80083F310880268FF3314682343136081F3A6
:102FB8001088CFE7154A4267002BCBD0EDE78C424B
:102FC8001AD1002B0AD1124B4367EFF3108101236A
:102FD80083F3108802681F3310680AE00D4B4367BB
:102FE800EFF31081012383F31088026820331068FF
:102FF800FF3303431360B8E7064A4267002BEFD15B
:10300800E3E7C046FF01000015270008492500082E
:10301800752400089D23000803008C3070B50468EF
:103028000220202C25D10138002922D0002A20D0C6
:1030380080209C684001844205D11869002802D18B
:103048000130014215D10020D86618684068000296
:103058000CD5EFF31085012080F3108880201C68C0
:10306800C00426683043206085F310881800FFF7F5
:1030780033FF70BD70477047836810B50400002B9C
:1030880005D00322010098470023A360E36010BD28
:10309800836810B50400002B02D003220100984772
:1030A800200010BD4B1E032B00D9FEE78800043812
:1030B8007047000000B50139425C1020130003403E
:1030C800024204D0022917D80C4B4800C35ED2072D
:1030D80008D5032910D80800FCF7EAFF0206080BF8
:1030E80001221343180000BD1022FAE78022520083
:1030F800F7E780225201F4E7FEE7C046E46D0008D6
:103108000139032900D9FEE7014B58567047C046DC
:10311800E06D00080139032902D8034B585670475F
:1031280001204042FBE7C046DC6D0008F7B504000B
:103138000E00FFF7B7FF310005002000FFF7E0FFA2
:1031480033016433E31801939B68002B05D0C24315
:1031580023691A61DA681043D860771E7B00E31888
:1031680098880C2818D8FCF7A3FF4F4F1818180791
:103178000718184949492900E35DDB0604D52000F2
:1031880029001030FEF7FCFDE35DDB0704D52000C5
:1031980029001030FEF728FDF7BDE35DDB0604D5F6
:1031A800200029001030FEF7ABFDE35DDB07F3D507
:1031B800200029001030FEF7B1FCEDE720002900BF
:1031C8001030FEF715FD31002000FFF7A3FF0100C6
:1031D80006002000FFF76EFF25692B6A1843019B44
:1031E80028629B68002BD7D031002000FFF788FFAA
:1031F800C3432B61EB681843E860CDE72000290042
:103208001030FEF7F5FCC7E723691B68DB07C3D45A
:1032180020001030FEF710FBBEE7C36E10B50400A7
:10322800002B0AD00222036952421A61D96803327C
:103238000A43DA601030FEF7FFFA20000121FFF799
:1032480075FF20000221FFF771FF20000321FFF71F
:103258006DFF04212000FFF769FF10BD802203697C
:10326800002903D019680A431A6070471968914306
:103278001960FAE710B501211030FEF70BFB10BDFD
:103288000369186801231840704770B505000C00E1
:10329800FFF7F6FF00280FD10126E36833420CD070
:1032A800E3682800B343E360FFF7E4FF02235B42CF
:1032B8002361E3681E43E66070BD2800FFF7DAFF6C
:1032C800FAE70B0010B50169013B8B62FFF7DDFFE0
:1032D80010BD0000124A030090421AD0114A9042D1
:1032E80019D0114A0220934214D0104A0130934257
:1032F80010D00F4A013093420CD00E4A013093424D
:1033080008D00D4A934208D00C4A0230934201D0AB
:10331800FEE7002070470120FCE70620FAE7C046D8
:10332800002C014000040040001000400014004040
:103338000020004000400140004401400048014096
:1033480070B504000069FFF7C5FF050020001030C4
:1033580000F078FE0022084BAD00EA502600250058
:10336800E260B4356436B54204D0103D2800FFF75A
:103378008FFEF8E7200070BD9C01002070B50400A6
:1033880008000E00FFF7A6FF2569002D00D0FEE714
:1033980022001F4B0C328000C25023002C332661C0
:1033A8001D702600203325636563A563E5632564E6
:1033B8006564A5641D705D7003231036E3653000F5
:1033C8002566E46000F0BCFD20006430FFF754FE81
:1033D80020007430FFF750FE20008430FFF74CFEC9
:1033E80020009430FFF748FE2000A430FFF744FE89
:1033F800084B3000E361802325606560A560656146
:10340800A56125626562A362FEF750FB70BDC046E8
:103418009C010020FFFF000010B586B004001022B8
:10342800002102A802F0BAFE002302A801A9019314
:10343800FEF7E8F9206900F004FF012815D1059C82
:10344800FEF7CCF9C023DB019C4206D007D88022C6
:10345800064BD2012340934205D1400003E0E0230C
:10346800DB019C42F9D006B010BDFEE7FFEFFFFF7D
:1034780070B505000C00012A0CD0022A18D02300D0
:103488005A1E93412969E41A2800CC62EC61FFF7BF
:10349800FCFE70BDFFF7C0FF0849FCF713FE604350
:1034A8002B69010C99620131FCF70CFE0400E6E778
:1034B800FFF7B2FF2100FCF705FEF1E740420F00DD
:1034C800044B10B51868002802D00430FEF7F8F94C
:1034D80010BDC0469C01002010B5FFF7F1FF10BDDC
:1034E800044B10B55868002802D00430FEF7E8F9FC
:1034F80010BDC0469C010020044B10B598680028F8
:1035080002D00430FEF7DCF910BDC0469C01002053
:10351800044B10B5D868002802D00430FEF7D0F963
:1035280010BDC0469C010020044B10B51869002846
:1035380002D00430FEF7C4F910BDC0469C0100203B
:10354800044B10B55869002802D00430FEF7B8F9CA
:1035580010BDC0469C010020044B10B59869002896
:1035680002D00430FEF7ACF910BDC0469C01002023
:10357800044B10B5D869002802D00430FEF7A0F932
:1035880010BDC0469C01002010B50C22002104008B
:1035980002F004FE00232000E36010BDF8B505002A
:1035A800070004000E006435B43728001035FFF713
:1035B800EBFFBD42F9D10023310020002361FFF762
:1035C800DDFE2000F8BD70B50C220D0000210400BE
:1035D80002F0E4FD0023E360AB68002B07D0022271
:1035E800290020009847EB68E360AB68A3602000DF
:1035F80070BD70B586B06E46040002AD2800FFF7B6
:10360800E2FF29000822300002F066FE2B002200AB
:1036180003CA03C3230006CE06C3049BA268A360A3
:10362800059B0492E2682800E3600592FFF730FDED
:1036380006B070BD70B50400E36E0D006430002B59
:1036480002D0FFF7D6FF70BDFFF7D3FFAB68002BA2
:10365800F9D00222236952421A61D96803320A4317
:10366800DA60F0E7836810B5002B01D102F020FC86
:10367800C368984710BD10B5002800D1FEE700F0D8
:103688005DFC0068C36E002B02D06430FFF7EAFFD0
:1036980010BD10B5FFF7EFFF10BD030010B50028EF
:1036A80000D1FEE7007F0138072812D8FCF700FD9B
:1036B80004161112111111140124180000F03EFC17
:1036C80024010068643400198368002B01D0FFF7D7
:1036D800C9FF10BD0324F0E70424EEE70224ECE759
:1036E80010B5FFF7DAFF10BD10B5FFF7D6FF10BD14
:1036F80010B502F0E7FB10BD10B502F0EDFB10BDF0
:103708007FB5002304280FD81B4B5A6BFCF7D0FC5D
:10371800030F18212A0001210A435A635B6B0B40EF
:103728000193019BA023DB05180007B000BD02210F
:103738000A435A635B6B0B400293029B0F4BF3E700
:1037480004210A435A635B6B0B400393039B0C4BA6
:10375800EAE708210A435A635B6B0B400493049B16
:10376800084BE1E720210A435A635B6B0B40059342
:10377800059B054BD8E7C0460010024000040050E6
:1037880000080050000C00500014005010B5064905
:1037980000F09CFB0003C00E122800D9FEE7034B83
:1037A8008000C05810BDC0468C6C0008F86D000839
:1037B800044BC018022800D9FEE7034B8000C0580C
:1037C8007047C046FFEFFFFFEC6D000807B580218A
:1037D8000A4B49031A6C0A431A641A6C0A4001928C
:1037E800019A5A6D920092085A65054B1868C304ED
:1037F80002D4044900F028FB07BDC046001002406F
:103808001C0000208C6C00088022094B5203196BA5
:1038180011431963186B074908401863186B024372
:103828001A631A6B0A401A631A6C0A401A647047C2
:1038380000100240FFFFEFFFF0B59FB064220500C3
:103848000F0005A8002102F0A9FC0C22002102A803
:1038580002F0A4FC6B469E1C002333800193EB040A
:1038680000D4B0E0614B9D4200D9ACE0604B280029
:103878000593FFF79DFF072204001023082F06D0A9
:10388800083B0A2F03D01033062F00D000238021D5
:1038980009060691099104212E2007930A91002315
:1038A80069468B8509180B7001210C911431694404
:1038B800CB7710A90B7080211292139214AA13705F
:1038C8001AAA08930E930F9318931B9319931370C6
:1038D800484B490105A811911D60FCF72FFE0028EF
:1038E80000D07FE00294012C37D0434B9C4234D067
:1038F800424B9C4231D0424B9C422ED0414B9C4281
:103908002BD0414B9C4228D0404B9C4225D0404B69
:103918009C4222D03F4B9C421FD03F4B9C421CD024
:103928003E4B9C4219D03E4B9C4216D03D4A630008
:103938005B08934211D03C4A93420ED03B4A9342D3
:103948000BD03B4B9C4208D03A4B9C4205D03A4B9B
:103958009C4202D0394B9C4244D10123039300235B
:1039680002A905A80493FCF761FF00283AD105A82D
:10397800FDF7E0F9002835D105A8FDF7FBF8002888
:1039880030D10A2105A8FCF7E9FE00282AD105A8AC
:10399800FDF762F8800504D505A8FCF743FF80B25F
:1039A800308005A8FDF7A8F900281BD105A8FDF768
:1039B8004DF9002816D1224A224913680B4013609A
:1039C800308880B20FE02049280000F057FA01A99A
:1039D80005902800FFF7DAFE059B04000322002B60
:1039E80000D04AE700201FB0F0BDC0460310000019
:1039F800002401401C00002002000004040000080C
:103A08000800000C100000102000001440000018EE
:103A18008000001C0001002000020024000400288F
:103A28000008002C0010003000200034004000384E
:103A38000080003C000001400000024400000448EF
:103A480008270140FFFF3FFE8C6C0008F7B5134BB9
:103A580006001900019300F011FAFFF73BFC104F24
:103A68008400E359002B0DD1B420FFF741FE0199E2
:103A78000500300000F002FA01002800FFF78EFD73
:103A8800E3591D603B591C68002C06D02000FFF745
:103A980057FCB4212000FFF72FFEF7BD186B000874
:103AA8009C01002010B5FCF733FD10BD704710B520
:103AB800FCF722FDFDF75FFAFFF7F8FF10BD70472E
:103AC80080210E4B4905DA6B84B00A43DA63DA6B5E
:103AD8000A4001210192019A1A6C0A431A641A6C6D
:103AE8000A4080210292029A9A6B49010A439A631A
:103AF8009B6B0B400393039B04B07047001002407C
:103B080010B5FFF7DDFFC020C000FCF707FDFCF78C
:103B1800DFFCFFF7D4FFFCF779FC0248FDF730FA29
:103B280010BDC04620000020012A02D101600020FB
:103B38007047022A05D0032AF9D0002AF7D102607B
:103B4800F5E70B680360F2E710B50368984710BD06
:103B580010B50C220021040002F020FB0023E360D2
:103B680010BD0000002310B501280BD114225A43C0
:103B7800064B101DC0188168002902D09B181B69CC
:103B8800984710BD01334008DBB2EDE7BC010020C7
:103B980010B5FFF7E7FF10BD10B5FFF7E3FF10BD45
:103BA80010B50120FDF7CCFA0220FDF7C9FA10BDC7
:103BB80010B50420FDF7C4FA0820FDF7C1FA10BDBE
:103BC80070B50C241025A8B2013CFDF7B9FA6D00B8
:103BD800002CF8D170BD0000F8B505252E4F2F4CEC
:103BE80038002570FFF7B4FF2D4E25753000FFF71C
:103BF800AFFF2300013528332A481D70FFF7A8FFBF
:103C0800230029483C331D70FFF7A2FF230001352C
:103C1800503326481D706037FFF79AFF24483D70DF
:103C28006036FFF795FF23483570FFF791FF2300B3
:103C380021488C331D70FFF78BFF23001F48A033EA
:103C48001D70FFF785FF23001D48B4331D70FFF773
:103C58007FFF23001B48C8331D70FFF779FF23003F
:103C68001948DC331D70FFF773FF23002600F0337B
:103C780016481D70FF36FFF76BFF15487571FFF783
:103C880067FF14487576FFF763FF962312485B00B9
:103C9800E554FFF75DFFF8BDC0010020BC0100201E
:103CA800D4010020E8010020FC01002010020020BF
:103CB80024020020380200204C020020600200206C
:103CC80074020020880200209C020020B00200201C
:103CD800C4020020D8020020EC02002010B5044CD9
:103CE800143C201DFFF7D4F9024B9C42F8D110BDBB
:103CF800FC020020BC010020431C04D100207047B6
:103D0800834204D00C310B685A1CF9D1F6E7012024
:103D1800F5E70000F7B506000C00431C00D1FEE7EC
:103D28000F23474A0340C0B29B0009389D58032817
:103D38000ED8FCF7BDF902222C31C02332009B01BA
:103D48001A409A4204D108233E4A11680B43136073
:103D58003006000FFFF7D4FC290003220300694353
:103D68004A438068D74310439860072020400328BF
:103D78003FD8FCF79DF9553F1549C02332009B01F8
:103D88001A409A42E4D12F4A10231168DEE708212D
:103D98002C4A13688B43DAE72A4A10211368F9E79B
:103DA8006004420E01924A009446019A7F2A0ED07E
:103DB800360711D50F265A6A10002A0A5243524371
:103DC8005643B04306000198424316435E6260467C
:103DD8001A683A40024310E01A6A0F2610000A00D7
:103DE8004A435643B04306000198424316431E62B5
:103DF800EDE7FEE71A683A400A431A60220712D52F
:103E08005A682A435A6002E0186802431A60A406F6
:103E1800A40F012C0AD0022C0DD0DA683A4008E031
:103E28001A683A40F2E75A68AA43EBE7DA683A4078
:103E38000A43DA60F7BDDA6849003A40F8E7C04655
:103E4800446E00080000014010B5431C07D110BDA6
:103E5800834203D18968FFF75DFFF8E70C310B68EF
:103E68005A1CF5D1FEE70B685A1C01D1002002E06C
:103E7800834201D1486870470C31F4E7002310B53C
:103E8800421C02D0FFF7EFFF0300180010BD4B687B
:103E9800002B02D10120404202E0834201D1086890
:103EA80070470C31F3E710B5002802D0FFF7EFFF99
:103EB80010BD01204042FBE703000868421C02D005
:103EC800984201D1886870470C31F6E710B5431C59
:103ED80001D0FFF7F1FF10BD030008008B4205D0A9
:103EE800002B03D042425041404218407047000026
:103EF800A0220D4BD20019680C480A4300211A6011
:103F080099601A6802401A6080225201DA601A68C1
:103F1800074802401A60074A99611A628022064BD4
:103F280012059A607047C04600100240FFFFF6FE77
:103F3800FFFFFBFF3B03000000ED00E00438704783
:103F48000368374A88B093420BD18021354B090169
:103F58001A6C0A431A641B6C0B400093009B08B050
:103F68007047314A934209D102212E4BDA6B0A433A
:103F7800DA63DB6B0B400193019BF0E72B4A93421A
:103F880009D11021274BDA6B0A43DA63DB6B0B404C
:103F98000293029BE3E7264A934209D12021214B51
:103FA800DA6B0A43DA63DB6B0B400393039BD6E7B8
:103FB800204A93420AD180211A4B09021A6C0A43FB
:103FC8001A641B6C0B400493049BC8E71A4A93427B
:103FD8000AD18021134B49021A6C0A431A641B6CDC
:103FE8000B400593059BBAE7144A93420AD18021F6
:103FF8000C4B89021A6C0A431A641B6C0B4006931B
:10400800069BACE70E4A9342A9D18021054BC90211
:104018001A6C0A431A641B6C0B400793079B9EE7B4
:10402800002C014000100240000400400010004035
:1040380000140040002000400040014000440140BE
:104048000048014003681E4A934205D11D4A1E4993
:10405800136C0B40136407E01C4A934205D10221FC
:10406800184AD36B8B43D3637047194A934203D1E1
:10407800144A1021D36BF5E7164A934203D1114A2B
:104088002021D36BEEE7144A934203D10D4A13491A
:10409800136CDEE7124A934203D10A4A1149136CA2
:1040A800D7E7114A934203D1064A1049136CD0E767
:1040B8000F4A9342D8D1034A0E49136CC9E7C04648
:1040C800002C014000100240FFF7FFFF00040040F1
:1040D800001000400014004000200040FF7FFFFF58
:1040E80000400140FFFFFEFF00440140FFFFFDFFCD
:1040F80000480140FFFFFBFF0300421C20D0164A86
:10410800904220D010D8154A90421ED007D8144AA1
:1041180090421CD0134A1120934210D0FEE7124A55
:10412800132093420BD0F9E7104A904211D0104A5D
:104138001620934203D00F4A02389342EED17047BB
:104148000E204042FBE70D20F9E71220F7E7102088
:10415800F5E71520F3E7C046002C014000140040A5
:1041680000040040001000400020004000440140CE
:1041780000480140004001400300421C20D0164A7C
:10418800904220D010D8154A90421ED007D8144A21
:1041980090421CD0134A1120934210D0FEE7124AD5
:1041A800132093420BD0F9E7104A904211D0104ADD
:1041B8001620934203D00F4A02389342EED170473B
:1041C8000E204042FBE70E20F9E71220F7E7102007
:1041D800F5E71520F3E7C046002C01400014004025
:1041E800000400400010004000200040004401404E
:1041F8000048014000400140F8B50400FFF7A0FE68
:104208002068FFF779FF226DE16CFCF745FE206816
:10421800FFF772FFFCF76AFE27683800FFF7ACFF6C
:1042280005003800FFF768FF854209D02800226D95
:10423800E16CFCF731FE2068FFF79EFFFCF756FEA5
:10424800F8BD0130431E9841C0B27047F0B58BB03D
:10425800059303000400A0331868039127007549EB
:104268000492FFF70BFEA43773490500260038684F
:10427800FFF704FEA836714900903068FFF7FEFD8D
:104288002300AC3301906E491868FFF7F7FD0290E0
:10429800002D00D184E03B68013302D0009B002B45
:1042A8007ED03368013302D0019B002B78D02300E5
:1042B800AC331B68013302D0029B002B70D00099ED
:1042C8002800FFF709FE01992060FFF705FE029913
:1042D8002060FFF701FE2060002861D0594B98420A
:1042E80060D18022584BD201196B58481143196389
:1042F800196B01401963196C114319641B6C134045
:104308001B220693069B2300B0331A802300A03398
:1043180018684849FFF798FD009B002B05D023003B
:10432800A43345491868FFF78FFD0025019BAB4270
:1043380007D02300A83341491868FFF785FD0135E8
:10434800FF35029B002B08D080239B001D432300D0
:10435800AC333B491868FFF777FD2200B132127879
:104368003B4B261D9200D650236800226360039BB6
:10437800B020A360049BE561E360109B2262236187
:10438800059BE26263610C236262A36120560121EE
:10439800FCF782FD009B3000002B47D1FEF764FD3F
:1043A8000BB0F0BD2B4B984213D18022264B9202C2
:1043B800D96A29481143D962D96A0140D962D96BAF
:1043C8001143D963DB6B13408E220793079B52007E
:1043D80099E7224B984212D180221B4BD202D96A0C
:1043E8001F481143D962D96A0140D962D96B114378
:1043F800D963DB6B13400893089B1A4A83E71A4B6F
:10440800984200D082E780220F4B1203D96A1748DE
:104418001143D962D96A0140D962D96B1143D96372
:10442800DB6B13400993099B114A6CE7FEF7E8FC24
:10443800B6E7C046A06A0008346A0008E0690008C8
:10444800986900080038014000100240FFBFFFFFD4
:10445800FC02002000440040FFFFFDFF0048004030
:10446800FFFFFBFF1D020000004C0040FFFFF7FFAD
:104478001D03000013B5002803D0049C0094FFF727
:10448800E5FE13BD0B4A0C4B126813B59200D458C5
:104498000A492000FFF7F2FC002809D000229621E3
:1044A800074B08481C60890113000092FFF7CEFEF5
:1044B80013BDC0461C6D0008486D0008A06A0008BE
:1044C800E80000204800002010B5B1300278064B03
:1044D8009200D058FEF750FA22231840223843425F
:1044E8005841C0B210BDC046FC02002010B5B13022
:1044F8000278064B9200D058FEF73EFA2123184066
:10450800213843425841C0B210BDC046FC020020C9
:10451800F0B585B00D000390FBF7FAFF2C4B029025
:104528001B782C4C032B16D8FA27B13422782A4B47
:104538009200D458BF00261F3000FFF7D7FF00288D
:104548003ED1FA2320000399AAB29B00FEF789FB0B
:1045580000280DD10DE0214A214B12682149920013
:10456800D35818000193FFF789FC002398420DD116
:104578000025280005B0F0BD174F9B00DB59002B24
:104588000AD12300B1331B780133DBB22600B136E0
:104598003370032BF0D90BE012490198FFF76EFC3A
:1045A80033789A00D25912688242EAD1032BBBD9D8
:1045B800FFF768FF2300B1331B78032BB4D9D7E783
:1045C800FBF7A6FF029BC01AB842B5D3D0E7C04696
:1045D800F900002048000020FC0200201C6D0008A3
:1045E800486D0008A06A000870B504000E00002895
:1045F80002D10120404270BDFFF766FF051EF8D1C9
:104608002100B2310B78B13433702078034B80002D
:104618000122C058FEF700FD2800ECE7FC0200204C
:1046280070B504000D0000281AD0FFF74DFF0028D0
:1046380016D1230098331D6025000020B035285678
:10464800FCF760FC2100B1342078064B8000012281
:10465800C058B231FEF7E0FC00202856FCF746FCB3
:1046680070BDC046FC02002070B50400150000288B
:104678001BD00300060000209C331960B03630566A
:10468800FCF740FC23002100C233B8311B880968BD
:10469800B1342078C918054B8000C058AAB2FDF77C
:1046A80073FC00203056FCF721FC70BDFC02002092
:1046B80010B500280BD00300A4331B68013306D1C2
:1046C800B1300278024B9200D058FEF703F910BDC2
:1046D800FC02002010B500280BD00300A4331B688F
:1046E800013306D1B1300278024B9200D058FEF760
:1046F8001AF910BDFC020020030010B594331B68A2
:104708000438984710BD030010B598331B68043867
:10471800984710BD0122036810B5D9690400043810
:10472800114201D01A620BE00222D9691142F9D173
:104738000422D9691142F5D10822D9691142F1D16F
:10474800FFF7C2FE002805D1210001222000AE316A
:10475800FEF762FC10BD000010B51B20FCF7FCFB47
:10476800024B1868FDF778FC10BDC046FC0200201B
:104778001C2010B5FCF7F0FB034B5868002801D04B
:10478800FDF76AFC10BDC046FC0200201D2010B5D4
:10479800FCF7E2FB054CA068002801D0FDF75CFCA3
:1047A800E068002801D0FDF757FC10BDFC0200208E
:1047B800010010B50122AE31FEF72EFC10BD00003D
:1047C80003000A4910B50868C318EFF3088293423A
:1047D80005D90C220120064B40421A6010BD054A3B
:1047E800054C121B9342F4D20B60F7E7100100202E
:1047F800581400200090002000040000FEE700008C
:1048080016220120014B40421A60704758140020BC
:104818000120704770B51D4D2C68012C08D0022C62
:1048280019D0002C16D12100172001F057FA11E0F9
:1048380001F092FA164E3368C01A164B1B6898425C
:10484800F1D30223002117202B6001F047FA01F071
:1048580083FA306070BD01F07FFA0D4C2368C01AEE
:104868000D4B1B689842F5D30C4B19680139196038
:10487800002901D12960D7E701211720296001F01B
:104888002DFA01F069FA2060E4E7C046240300200D
:10489800200300201C01002018010020280300200C
:1048A80010B50124064B1860064B1C6001F054FA41
:1048B800054B21001860172001F010FA10BDC04602
:1048C800280300202403002020030020642210B5C0
:1048D800034B1A60034B32321A60FFF7E1FF10BD39
:1048E8001C01002018010020FA2210B5044B920088
:1048F8001A60044BF53AFF3A1A60FFF7D1FF10BD72
:104908001C01002018010020E12170B53B4C062253
:104918002000490201F042F82000394901F0CEF8A0
:10492800384C06222000384901F038F82100374871
:1049380000F07EFA364C374D2200C621280000F0E0
:10494800EDFD28005A2100F055FD334D2200C72106
:10495800280000F0E3FD28005A2100F04BFD2F4D00
:104968002200C821280000F0D9FD28005A2100F0B3
:1049780041FD2B4D22002800C92100F0CFFD280061
:104988005A2100F037FD01211C2001F04BF90021CC
:104998001C2001F0A3F901211B2001F043F900219B
:1049A8001B2001F09BF90121082001F03BF90021AF
:1049B800082001F093F901211A2001F033F90021B0
:1049C8001A2001F08BF9174B22001C001800C42193
:1049D80000F0A4FD2000002100F00CFD01211720AB
:1049E80001F020F90021172001F078F9322001F0B8
:1049F800B7F90120FFF76AFF70BDC046BC0E002062
:104A0800E46E000824070020A06806005005002076
:104A1800DC05000054090020510900204E0900203F
:104A28004B0900204809002070B5040001F094F9F2
:104A3800050001F091F9401BA04200D370BD024867
:104A480000F0E1FBF5E7C04650050020F0B5BE4D8B
:104A58008BB0280000F0D7FBFFF7DCFE01F07CF9F3
:104A6800BA4C2368C01A642800D8D5E001F074F95C
:104A7800C82320605B00EA5CB54EB64BB64C002AF2
:104A880000D106E11A78002A03D101201870FFF737
:104A98001DFF0027B14B3360B14BB24E1F70B24BB4
:104AA8002360B24BB24C1F70D2235B00EB580393C8
:104AB800039A3378A24200DCB0E0BB4204D1012063
:104AC800FFF704FF01233370B423CE20FA22FA2122
:104AD800009340000023D2008900285801F034F8E0
:104AE800A44B0100180000F085FCDC23DA265B00EB
:104AF800EB587600A34200DCAAE0039BA34200DC4B
:104B080094E00121082001F0E9F8AB5901210C36A5
:104B1800A34200DC00211A2001F0E0F8AB59964AC4
:104B28000121934200DD8EE0944A934200DD89E042
:104B380000211C2001F0D2F801211B2001F0CEF841
:104B4800CC235B00EA58043BED58B426AF18551B3C
:104B5800FA228B4B8B49FF1838000023009652002D
:104B680000F0F2FFFA2200238649049000963800EC
:104B7800520000F0E9FFFA220023824905900096CE
:104B88002800520000F0E0FFFA2200230690009669
:104B980028007C49520000F0D7FF039B07907A4F0A
:104BA8007A487B4E7B4DA34266DD049900F022FCD7
:104BB8003800059900F01EFC0699300000F01AFC38
:104BC8000799280000F016FCC52001F015F8724B73
:104BD800724958436425FBF775FA0023704A7149F6
:104BE8000095040000F0B0FFA02108AB090159802E
:104BF80059680200090E6C48090664BA01431C8012
:104C08005960AA4200DC9BE02A00DA710822C82118
:104C18004D48009200F001FB0BB0F0BD002B00D115
:104C280052E70220FFF752FE37704DE700210820B7
:104C380001F054F8AB590121A34200DC00211A20ED
:104C480001F04CF800211C2001F048F8002174E71D
:104C58000021082001F042F8AB590121A34200DCF1
:104C680000211A2001F03AF8E023039A5B00EB5880
:104C7800A24200DD53E7E5E75A2100F0BBFB5A21C9
:104C8800380000F0B7FB5A21300000F0B3FB5A217E
:104C980097E71978002900D01A703368002B07DDD0
:104CA800643B33602368002B2CDD643B23608BE777
:104CB8002B4B1A78002A04D1013203201A70FFF70F
:104CC80005FE0021082001F009F800211A2001F052
:104CD80005F800211C2001F001F800211B2000F03C
:104CE800FDFF5A21294800F085FB5A21264800F08B
:104CF80081FB5A21264800F07DFB5A21254800F007
:104D080079FBCFE7194B1C78002C00D05CE7012514
:104D1800210018481D7000F06DFB1048FFF784FE55
:104D280029001A2000F0DAFFFA208000FFF77CFE45
:104D380021001A2000F0D2FF0320FFF7D5FD43E73A
:104D4800D143C9170A4060E7500500201C03002022
:104D5800140300201803002010030020B80B0000E3
:104D6800150100200C03002060EA00001401002057
:104D7800DC05000048090020D6060000E104000018
:104D880048F4FFFF0CFEFFFF5109002054090020E2
:104D98004E0900204B090020C8FE290000C025014B
:104DA80010A40000B888000003E8000010B50E4801
:104DB80000F0EEFA0D4800F0EBFA0D4800F0E8FAC2
:104DC8000C4800F0E5FA0C4800F0E2FA00220B4922
:104DD8000B4800F055FD0B4800F01AF801220A486C
:104DE8000A4900F04DFD10BD54090020510900206A
:104DF8004E0900204B0900204809002000480040C7
:104E080024070020500500202C030020004C0040FF
:104E180010B5D5210400483000F03CFAC422002324
:104E28005200A3500432A35004322000A35410BDF2
:104E38000160704770B5C8256D00435D0400002B04
:104E48000BD000F089FFC6235B00E358C01A9623F5
:104E58005B00984201D90023635570BD10B504006A
:104E6800473423788B4202D80023237010BD0A1DD3
:104E7800591A0023C9B2821821700430D45CC45472
:104E880001338B42FAD1F1E770B5050047352B782D
:104E98000400002B07D000F05FFFC4235B00E35839
:104EA800C01A642804D870BD01212000FFF7D6FF7E
:104EB8002B78002BF8D1F6E7F0B50727CB1C85B087
:104EC80003930B79CA783B401B021343CA22520052
:104ED800060083503F204A790B7902405201DB08D3
:104EE8001343CC2201255200B3504B798A799B0990
:104EF80092001A43CB790F242B409B021343CE22F6
:104F08009BB25200B3500A7ACB792240BA40EB40A8
:104F18001343D0225200B3504A7A0B7AA446703415
:104F2800224012011B091343D2225200B3504B7A7C
:104F38008A7AFB40AA401A43CB7A7C3C23405B0226
:104F48001343D4229BB25200B3500A7BCB7A203849
:104F5800024092019B081343D6225200B3504B7B68
:104F68000A7BA34052091A43D8235B00F250CB7B3B
:104F78008A7B3B401B021343DA225200B350CB7B9F
:104F88000A7CE34038373A4052011343DC2252008E
:104F9800B3500B7C4A7C9B0992001A438B7C674672
:104FA8002B409B021343DE229BB25200B3508B7CF2
:104FB800CA7CEB403A40D2011343E0225200B3507E
:104FC8000A7DCB7C7E352A4012011B091343E2225D
:104FD8005200B3500B7D4A7DDB0952001A438B7D8A
:104FE800350023405B021343E4229BB25200B350C6
:104FF800CA7D8B7D024092019B081343E622520032
:10500800B3500A7ECB7DA2405B0913433400E822EB
:10501800FA2752009534D535B350FF34FF35FF00D9
:10502800FA23E02200972068BF219B00D20000F0FD
:105038008BFD01C4AC42F3D1C82301225B00F254BA
:1050480000F08AFEC6235B00F0503000493016227B
:105058000399FF3001F040F905B0F0BD10B55F309D
:105068000A22FF30033101F037F910BD10B50400F2
:105078000B79CA781B0213434A79FC3412041A4389
:105088008B791B0613431BBAE3660B7ACA791B029A
:1050980013434A7A12041A438B7A1B0613431BBA2A
:1050A80023670B7BCA7A1B021343B8225BBA5200F0
:1050B80083528B7B4A7B1B021343B9225BBA520093
:1050C80083520B7CCA7B1B021343BA225BBA520081
:1050D8008352BB234A7C5B00C25410BD10B57A24AE
:1050E8000B79CA781B0213435BBAFF349AB2035593
:1050F800130A021953704A798B797C211B021343D6
:105108005BBAFF319AB24354120A4018427010BD7C
:1051180010B50379C82B08D18379011D092B12D04A
:1051280004D8022B09D0072B10D010BD142B07D0A0
:10513800162BFAD1FFF7C0FEF7E7FFF797FFF4E762
:10514800FFF78CFFF1E7FFF7C9FFEEE77821037A55
:10515800C2791B0213435BBAFF319AB24354120A55
:1051680040184270E1E770B50400230047331A780D
:10517800012A1ED96579EB1E3D2B04D90121200097
:10518800FFF76CFEF1E76B1CDBB2934211DA2000EB
:105198006A1EE318D2B2A11D48301E7900F080F8CB
:1051A8008642EBD1290020000235FFF7B1FFE9B2B2
:1051B800E5E770BDF8B5C42704007F0020680368E0
:1051C8001B699847002806D12000FFF75DFE2000E4
:1051D800FFF730FEF8BD20682500036847355B6996
:1051E8009847060000F0B8FDE0512B7820005A1CC3
:1051F800E3182A701E71FFF7B6FF2B78432BDDD119
:1052080000232B70DAE710B5FFF7D4FF10BD10B5F7
:10521800006803685B68984710BD70B592B00500D8
:105228000800190016AB1C78C8235B00EB5C002B48
:105238001AD0402C18D801AEA31C73706B4630707E
:10524800B270D81D220001F047F86B462800621C96
:10525800991DD2B2483000F023F83319D8703100C4
:105268002800221DFFF7D3FF12B070BD70B580254E
:1052780000226D000824D3B25E005BB2DB170B403E
:105288007340013CDBB2002CF6D183540132AA42B0
:10529800F0D170BD10B50400FFF7E8FF200010BD85
:1052A8000300002010B58A18914200D110BD0C7877
:1052B80001316040185CF7E770B52E4C2E4D23780D
:1052C8002A785BB22D4E002B17DA0023336023783F
:1052D8002A7801335BB22370237829485BB2934262
:1052E80003DA23785BB20B2B1BDD3368254A0433C2
:1052F800934235D9FDF7BEFF38E023785BB293427D
:10530800E5DA2378204A5BB2DB00D3185B78012BFF
:10531800DDD1237800215BB2DB00985C00F0DEFC75
:10532800D5E72378184D5BB2DB00EB1859680022EB
:10533800FEF79EF823785BB2DB00EB185A683368F7
:105348009B18336023785BB2DB00EB18597801298E
:1053580005D123785BB2DB00585D00F0BFFC70BD5F
:1053680033680A490022C91AFEF782F8FF2323701E
:10537800F5E7C046200100205C09002058090020FC
:10538800600900201F4E0000140A0020204E000073
:10539800074A13780B2B08D8591C1170054A03705B
:1053A800DB00D218044B53607047FF230370FBE700
:1053B8005C090020140A0020DC05000010B5047800
:1053C8000B2C13D80122882382569B1A9B008B42F0
:1053D80008DC0222962382569B009B1A9B008B4274
:1053E80000DD0B00024AE4001219536010BDC046EC
:1053F800140A0020882313B59B000400994216DA8A
:10540800B420B42902DCC843C0170840012288230D
:10541800A25602219B1A962261569200521A9200B5
:10542800002100929B00B42200F08EFB01002000B6
:10543800FFF7C4FF13BD0000F0B587B001930378F0
:1054480004000D0016000B2B54D80121280000F091
:10545800E9FB882103222378284F8900891BDB0078
:10546800DD55CB1713405B1896219B106370019B89
:105478000901C91ACB1713405B189B10A3702000B1
:105488000C99FFF7B7FF00231D4AD15C01292CD0E6
:105498000833602BF9D11B4D2800FDF7BDFF1A49D1
:1054A800FAF710FE01002800FDF70BFF0022280084
:1054B8001649FDF7DDFF00230393154B28000293DF
:1054C800144B02A90593144B0493FEF7B3F8049BFD
:1054D800002B03D002A903220800984728000021C6
:1054E800FDF7BCFE2800FDF798FE01222378DB00BB
:1054F800FB185A70207807B0F0BDC046140A002087
:10550800150A00206009002040420F00204E0000CC
:10551800C1520008513B0008313B000813B59623DF
:10552800882400921B01A200FFF786FF16BD000029
:1055380010B502480249FEF731F810BD6009002095
:105548000014004010B50248FDF7FAFE10BDC04631
:1055580060090020852384229B009200C35A805A48
:10556800181AC0B2704785239B00C25A043BC35A1D
:105578009A4204D0822292008258D05C704701205F
:105588004042FBE7064B074AC35C805AC0B28342DD
:1055980002D3C01A3F307047C01A0138FBE7C04633
:1055A800120200001602000013B56B460268D9719A
:1055B8000733546819000122A04716BD37B56B465A
:1055C800DD1D29000400FFF70FF800280FD1220085
:1055D8002100C0321388BC3101330988DBB28B4209
:1055E80005D0B434118820682D784554138037BD10
:1055F8000300010070B5C233C4311A880C6812194F
:105608003F2422401A800200BE3212881D880024DE
:10561800AA4217D01D8840321C880B4B521BA4B2DB
:105628001A4004D54023013A5B421A430132402311
:105638001B1B9A4200D91A000A6001240349FFF78C
:1056480013F86442200070BD3F000080F95500083F
:10565800F0B504004027036885B09B680191039268
:105668009847364B0500E35AFF1A01232374230099
:105678005533FF330293FC235B00E358013309D110
:1056880087239B00E25C002A04D000220298E2549F
:10569800FFF70EF8236820009B6898470028F9D088
:1056A800039EBE4225D8AE4223D88327234BBF0092
:1056B800E35AE0599A19C018402A32D832000199A1
:1056C80000F00AFE35003F221C490298635A9B19D4
:1056D80013406352FEF70AFF002807D186239B0078
:1056E8002A0017490298E550FEF7BEFF039805B057
:1056F800F0BDBD4200D93D0023682A005B680199CE
:1057080020009847019B20005B1901932368761BB2
:105718009B689847094B0500E75AD33BFF3BDF1BC3
:10572800BFE74025ED1A2A00019900F0D5FD019B3D
:10573800E059721B591900F0CFFDC4E712020000AE
:10574800F955000810B5914201D101214942FC24C4
:1057580064000151FA2149004250FE225200835050
:105768008023029A9B00C250020008331132C250B3
:10577800010085220023920012318352FF31083A3A
:10578800815004328350014A835210BD1602000032
:10579800F7B5037C04000D00002B12D0FAF7B8FE11
:1057A8000190084F084EE25BA35B9A4209D0002D96
:1057B800FAD0FAF7ADFE019BC01A8542F1D8A35B77
:1057C800E353F7BD120200001602000010B50021D5
:1057D800FFF7DEFF10BD0000CBB210B51E2B0AD8B4
:1057E800E022104C9B00D2000A4019591143FC23B7
:1057F8005B00C15010BDC0220A40C02A0ED1CA2B7E
:105808000CD83F23084C0B409B001B59E024054A49
:105818009B009B58E40021401943E8E701214942D5
:10582800E5E7C046486D00081C6D0008CBB210B50E
:105838001E2B0AD8E022104C9B00D2000A401959AE
:105848001143FA235B00C15010BDC0220A40C02A90
:105858000ED1CA2B0CD83F23084C0B409B001B5978
:10586800E024054A9B009B58E40021401943E8E7DF
:1058780001214942E5E7C046486D00081C6D000853
:105888000023F0B54360FA239B0083602E4BFC266F
:1058980003600123FA275B42760083512B4B85B0C6
:1058A80004000D0003927F00994219D1284B9A6A8F
:1058B80082515B6AE351FC210123039A49005B4250
:1058C800012A00D16350FA220093012352002000DC
:1058D800A25861585B42FFF735FF200005B0F0BDC4
:1058E8001C4B994207D1C321FFF776FFC221200044
:1058F800FFF79CFFDFE7184B994204D1144B5A6E0F
:1059080082511B6ED6E7154B994201D1C021EEE7B3
:10591800134A144B126802930D4B92000299D05807
:10592800FEF7ACFA854204D1C1212000FFF754FFED
:10593800ECE70D492800FEF7B6FA0299A0512800B5
:10594800FEF7B1FAE051B6E70C6F000800380140E5
:10595800486D00080044004000480040004C0040EA
:105968001C6D0008A06A0008346A0008FC235B006C
:10597800C35810B5040001330ED10368DB6898479B
:1059880087239B00E25C002A06D1200001325530B3
:10599800E254FF30FEF79EFE10BD000088239B00F6
:1059A80073B5C150184B0400C25407231340023B7F
:1059B800DBB20026042B01D81448C65C3023134000
:1059C800302B1AD1C0230136DB00073E022E1AD82D
:1059D800250012070E485535D20FFF35B600520381
:1059E800009232582800FEF745FD2000FFF7BEFF61
:1059F80028000849FEF714FE73BD00239006E4D57D
:105A080080230136E0E7FEE71D020000FC6E000877
:105A1800F06E0008C555000810B50400FFF7A6FF92
:105A2800852384229B009200E15AA35A994207D009
:105A3800822189006158C85C0133DBB2A35210BDD2
:105A480001204042FBE7000010B5002209490A483E
:105A5800FFF716FF002209490948FFF711FF002246
:105A680008490948FFF70CFF002208480849FFF7D2
:105A780007FF10BD00380140E0100020004400403E
:105A8800BC0E002000480040980C0020740A00203A
:105A9800004C0040030070B508001400002B05D02E
:105AA8005A1E012A04D82100FEF732FD200070BDDD
:105AB8001A68180055682200A847F7E70EB403B51E
:105AC80003AA02CA019200F0EBFA02B008BC03B0C4
